{
  "_format": "hh3-artifact-1",
  "contractName": "EventRegistry",
  "sourceName": "contracts/EventRegistry.sol",
  "abi": [
    {
      "anonymous": false,
      "inputs": [
        {
          "indexed": true,
          "internalType": "uint256",
          "name": "eventId",
          "type": "uint256"
        },
        {
          "indexed": false,
          "internalType": "string",
          "name": "name",
          "type": "string"
        },
        {
          "indexed": true,
          "internalType": "address",
          "name": "organizer",
          "type": "address"
        },
        {
          "indexed": false,
          "internalType": "uint256",
          "name": "ticketSupply",
          "type": "uint256"
        }
      ],
      "name": "EventCreated",
      "type": "event"
    },
    {
      "inputs": [
        {
          "internalType": "string",
          "name": "name",
          "type": "string"
        },
        {
          "internalType": "string",
          "name": "venue",
          "type": "string"
        },
        {
          "internalType": "uint256",
          "name": "date",
          "type": "uint256"
        },
        {
          "internalType": "uint256",
          "name": "ticketSupply",
          "type": "uint256"
        }
      ],
      "name": "createEvent",
      "outputs": [
        {
          "internalType": "uint256",
          "name": "",
          "type": "uint256"
        }
      ],
      "stateMutability": "nonpayable",
      "type": "function"
    },
    {
      "inputs": [],
      "name": "eventCount",
      "outputs": [
        {
          "internalType": "uint256",
          "name": "",
          "type": "uint256"
        }
      ],
      "stateMutability": "view",
      "type": "function"
    },
    {
      "inputs": [
        {
          "internalType": "uint256",
          "name": "",
          "type": "uint256"
        }
      ],
      "name": "events",
      "outputs": [
        {
          "internalType": "uint256",
          "name": "id",
          "type": "uint256"
        },
        {
          "internalType": "string",
          "name": "name",
          "type": "string"
        },
        {
          "internalType": "string",
          "name": "venue",
          "type": "string"
        },
        {
          "internalType": "uint256",
          "name": "date",
          "type": "uint256"
        },
        {
          "internalType": "uint256",
          "name": "ticketSupply",
          "type": "uint256"
        },
        {
          "internalType": "uint256",
          "name": "ticketsSold",
          "type": "uint256"
        },
        {
          "internalType": "address",
          "name": "organizer",
          "type": "address"
        },
        {
          "internalType": "bool",
          "name": "exists",
          "type": "bool"
        }
      ],
      "stateMutability": "view",
      "type": "function"
    },
    {
      "inputs": [
        {
          "internalType": "uint256",
          "name": "eventId",
          "type": "uint256"
        }
      ],
      "name": "getEvent",
      "outputs": [
        {
          "components": [
            {
              "internalType": "uint256",
              "name": "id",
              "type": "uint256"
            },
            {
              "internalType": "string",
              "name": "name",
              "type": "string"
            },
            {
              "internalType": "string",
              "name": "venue",
              "type": "string"
            },
            {
              "internalType": "uint256",
              "name": "date",
              "type": "uint256"
            },
            {
              "internalType": "uint256",
              "name": "ticketSupply",
              "type": "uint256"
            },
            {
              "internalType": "uint256",
              "name": "ticketsSold",
              "type": "uint256"
            },
            {
              "internalType": "address",
              "name": "organizer",
              "type": "address"
            },
            {
              "internalType": "bool",
              "name": "exists",
              "type": "bool"
            }
          ],
          "internalType": "struct EventRegistry.Event",
          "name": "",
          "type": "tuple"
        }
      ],
      "stateMutability": "view",
      "type": "function"
    },
    {
      "inputs": [
        {
          "internalType": "uint256",
          "name": "eventId",
          "type": "uint256"
        }
      ],
      "name": "recordTicketSale",
      "outputs": [],
      "stateMutability": "nonpayable",
      "type": "function"
    },
    {
      "inputs": [
        {
          "internalType": "uint256",
          "name": "eventId",
          "type": "uint256"
        }
      ],
      "name": "ticketsAvailable",
      "outputs": [
        {
          "internalType": "uint256",
          "name": "",
          "type": "uint256"
        }
      ],
      "stateMutability": "view",
      "type": "function"
    }
  ],
  "bytecode": "0x6080604052348015600e575f5ffd5b506114468061001c5f395ff3fe608060405234801561000f575f5ffd5b5060043610610060575f3560e01c80630b791430146100645780634327c1a01461009b5780636d1884e0146100b757806371be2e4a146100e7578063ba8562a714610105578063bce062b914610135575b5f5ffd5b61007e600480360381019061007991906109b0565b610165565b604051610092989796959493929190610ab3565b60405180910390f35b6100b560048036038101906100b091906109b0565b6102e0565b005b6100d160048036038101906100cc91906109b0565b6103d3565b6040516100de9190610c66565b60405180910390f35b6100ef610615565b6040516100fc9190610c86565b60405180910390f35b61011f600480360381019061011a91906109b0565b61061b565b60405161012c9190610c86565b60405180910390f35b61014f600480360381019061014a9190610dcb565b6106b5565b60405161015c9190610c86565b60405180910390f35b5f602052805f5260405f205f91509050805f01549080600101805461018990610e94565b80601f01602080910402602001604051908101604052809291908181526020018280546101b590610e94565b80156102005780601f106101d757610100808354040283529160200191610200565b820191905f5260205f20905b8154815290600101906020018083116101e357829003601f168201915b50505050509080600201805461021590610e94565b80601f016020809104026020016040519081016040528092919081815260200182805461024190610e94565b801561028c5780601f106102635761010080835404028352916020019161028c565b820191905f5260205f20905b81548152906001019060200180831161026f57829003601f168201915b505050505090806003015490806004015490806005015490806006015f9054906101000a900473ffffffffffffffffffffffffffffffffffffffff16908060060160149054906101000a900460ff16905088565b5f5f8281526020019081526020015f2060060160149054906101000a900460ff16610340576040517f08c379a000000000000000000000000000000000000000000000000000000000815260040161033790610f0e565b60405180910390fd5b5f5f8281526020019081526020015f20600401545f5f8381526020019081526020015f2060050154106103a8576040517f08c379a000000000000000000000000000000000000000000000000000000000815260040161039f90610f76565b60405180910390fd5b5f5f8281526020019081526020015f206005015f8154809291906103cb90610fc1565b919050555050565b6103db610915565b5f5f8381526020019081526020015f2060060160149054906101000a900460ff1661043b576040517f08c379a000000000000000000000000000000000000000000000000000000000815260040161043290610f0e565b60405180910390fd5b5f5f8381526020019081526020015f20604051806101000160405290815f820154815260200160018201805461047090610e94565b80601f016020809104026020016040519081016040528092919081815260200182805461049c90610e94565b80156104e75780601f106104be576101008083540402835291602001916104e7565b820191905f5260205f20905b8154815290600101906020018083116104ca57829003601f168201915b5050505050815260200160028201805461050090610e94565b80601f016020809104026020016040519081016040528092919081815260200182805461052c90610e94565b80156105775780601f1061054e57610100808354040283529160200191610577565b820191905f5260205f20905b81548152906001019060200180831161055a57829003601f168201915b50505050508152602001600382015481526020016004820154815260200160058201548152602001600682015f9054906101000a900473ffffffffffffffffffffffffffffffffffffffff1673ffffffffffffffffffffffffffffffffffffffff1673ffffffffffffffffffffffffffffffffffffffff1681526020016006820160149054906101000a900460ff1615151515815250509050919050565b60015481565b5f5f5f8381526020019081526020015f2060060160149054906101000a900460ff1661067c576040517f08c379a000000000000000000000000000000000000000000000000000000000815260040161067390610f0e565b60405180910390fd5b5f5f8381526020019081526020015f20600501545f5f8481526020019081526020015f20600401546106ae9190611008565b9050919050565b5f5f8551116106f9576040517f08c379a00000000000000000000000000000000000000000000000000000000081526004016106f090611085565b60405180910390fd5b5f821161073b576040517f08c379a0000000000000000000000000000000000000000000000000000000008152600401610732906110ed565b60405180910390fd5b42831161077d576040517f08c379a000000000000000000000000000000000000000000000000000000000815260040161077490611155565b60405180910390fd5b5f600154905060015f81548092919061079590610fc1565b91905055506040518061010001604052808281526020018781526020018681526020018581526020018481526020015f81526020013373ffffffffffffffffffffffffffffffffffffffff168152602001600115158152505f5f8381526020019081526020015f205f820151815f0155602082015181600101908161081a9190611313565b5060408201518160020190816108309190611313565b50606082015181600301556080820151816004015560a0820151816005015560c0820151816006015f6101000a81548173ffffffffffffffffffffffffffffffffffffffff021916908373ffffffffffffffffffffffffffffffffffffffff16021790555060e08201518160060160146101000a81548160ff0219169083151502179055509050503373ffffffffffffffffffffffffffffffffffffffff16817fad389ee79ceb9d0e3a1739d75d42c8727ca5946b701beaa8ef2801b04d7d7a5788866040516109019291906113e2565b60405180910390a380915050949350505050565b6040518061010001604052805f815260200160608152602001606081526020015f81526020015f81526020015f81526020015f73ffffffffffffffffffffffffffffffffffffffff1681526020015f151581525090565b5f604051905090565b5f5ffd5b5f5ffd5b5f819050919050565b61098f8161097d565b8114610999575f5ffd5b50565b5f813590506109aa81610986565b92915050565b5f602082840312156109c5576109c4610975565b5b5f6109d28482850161099c565b91505092915050565b6109e48161097d565b82525050565b5f81519050919050565b5f82825260208201905092915050565b8281835e5f83830152505050565b5f601f19601f8301169050919050565b5f610a2c826109ea565b610a3681856109f4565b9350610a46818560208601610a04565b610a4f81610a12565b840191505092915050565b5f73ffffffffffffffffffffffffffffffffffffffff82169050919050565b5f610a8382610a5a565b9050919050565b610a9381610a79565b82525050565b5f8115159050919050565b610aad81610a99565b82525050565b5f61010082019050610ac75f83018b6109db565b8181036020830152610ad9818a610a22565b90508181036040830152610aed8189610a22565b9050610afc60608301886109db565b610b0960808301876109db565b610b1660a08301866109db565b610b2360c0830185610a8a565b610b3060e0830184610aa4565b9998505050505050505050565b610b468161097d565b82525050565b5f82825260208201905092915050565b5f610b66826109ea565b610b708185610b4c565b9350610b80818560208601610a04565b610b8981610a12565b840191505092915050565b610b9d81610a79565b82525050565b610bac81610a99565b82525050565b5f61010083015f830151610bc85f860182610b3d565b5060208301518482036020860152610be08282610b5c565b91505060408301518482036040860152610bfa8282610b5c565b9150506060830151610c0f6060860182610b3d565b506080830151610c226080860182610b3d565b5060a0830151610c3560a0860182610b3d565b5060c0830151610c4860c0860182610b94565b5060e0830151610c5b60e0860182610ba3565b508091505092915050565b5f6020820190508181035f830152610c7e8184610bb2565b905092915050565b5f602082019050610c995f8301846109db565b92915050565b5f5ffd5b5f5ffd5b7f4e487b71000000000000000000000000000000000000000000000000000000005f52604160045260245ffd5b610cdd82610a12565b810181811067ffffffffffffffff82111715610cfc57610cfb610ca7565b5b80604052505050565b5f610d0e61096c565b9050610d1a8282610cd4565b919050565b5f67ffffffffffffffff821115610d3957610d38610ca7565b5b610d4282610a12565b9050602081019050919050565b828183375f83830152505050565b5f610d6f610d6a84610d1f565b610d05565b905082815260208101848484011115610d8b57610d8a610ca3565b5b610d96848285610d4f565b509392505050565b5f82601f830112610db257610db1610c9f565b5b8135610dc2848260208601610d5d565b91505092915050565b5f5f5f5f60808587031215610de357610de2610975565b5b5f85013567ffffffffffffffff811115610e0057610dff610979565b5b610e0c87828801610d9e565b945050602085013567ffffffffffffffff811115610e2d57610e2c610979565b5b610e3987828801610d9e565b9350506040610e4a8782880161099c565b9250506060610e5b8782880161099c565b91505092959194509250565b7f4e487b71000000000000000000000000000000000000000000000000000000005f52602260045260245ffd5b5f6002820490506001821680610eab57607f821691505b602082108103610ebe57610ebd610e67565b5b50919050565b7f4576656e7420646f6573206e6f742065786973740000000000000000000000005f82015250565b5f610ef86014836109f4565b9150610f0382610ec4565b602082019050919050565b5f6020820190508181035f830152610f2581610eec565b9050919050565b7f536f6c64206f75740000000000000000000000000000000000000000000000005f82015250565b5f610f606008836109f4565b9150610f6b82610f2c565b602082019050919050565b5f6020820190508181035f830152610f8d81610f54565b9050919050565b7f4e487b71000000000000000000000000000000000000000000000000000000005f52601160045260245ffd5b5f610fcb8261097d565b91507fffffffffffffffffffffffffffffffffffffffffffffffffffffffffffffffff8203610ffd57610ffc610f94565b5b600182019050919050565b5f6110128261097d565b915061101d8361097d565b925082820390508181111561103557611034610f94565b5b92915050565b7f4e616d652063616e6e6f7420626520656d7074790000000000000000000000005f82015250565b5f61106f6014836109f4565b915061107a8261103b565b602082019050919050565b5f6020820190508181035f83015261109c81611063565b9050919050565b7f4d7573742068617665206174206c656173742031207469636b657400000000005f82015250565b5f6110d7601b836109f4565b91506110e2826110a3565b602082019050919050565b5f6020820190508181035f830152611104816110cb565b9050919050565b7f44617465206d75737420626520696e20746865206675747572650000000000005f82015250565b5f61113f601a836109f4565b915061114a8261110b565b602082019050919050565b5f6020820190508181035f83015261116c81611133565b9050919050565b5f819050815f5260205f209050919050565b5f6020601f8301049050919050565b5f82821b905092915050565b5f600883026111cf7fffffffffffffffffffffffffffffffffffffffffffffffffffffffffffffffff82611194565b6111d98683611194565b95508019841693508086168417925050509392505050565b5f819050919050565b5f61121461120f61120a8461097d565b6111f1565b61097d565b9050919050565b5f819050919050565b61122d836111fa565b6112416112398261121b565b8484546111a0565b825550505050565b5f5f905090565b611258611249565b611263818484611224565b505050565b5b818110156112865761127b5f82611250565b600181019050611269565b5050565b601f8211156112cb5761129c81611173565b6112a584611185565b810160208510156112b4578190505b6112c86112c085611185565b830182611268565b50505b505050565b5f82821c905092915050565b5f6112eb5f19846008026112d0565b1980831691505092915050565b5f61130383836112dc565b9150826002028217905092915050565b61131c826109ea565b67ffffffffffffffff81111561133557611334610ca7565b5b61133f8254610e94565b61134a82828561128a565b5f60209050601f83116001811461137b575f8415611369578287015190505b61137385826112f8565b8655506113da565b601f19841661138986611173565b5f5b828110156113b05784890151825560018201915060208501945060208101905061138b565b868310156113cd57848901516113c9601f8916826112dc565b8355505b6001600288020188555050505b505050505050565b5f6040820190508181035f8301526113fa8185610a22565b905061140960208301846109db565b939250505056fea2646970667358221220617d906407c89c1dfbfc9f52a251ed8fb6cc6ac29db5ee9b3717820e91f711d264736f6c634300081c0033",
  "linkReferences": {},
  "deployedLinkReferences": {},
  "immutableReferences": {},
  "inputSourceName": "project/contracts/EventRegistry.sol",
  "buildInfoId": "solc-0_8_28-ba594b2237eafae9c93e625221cdf4dfe4031dcf"
}