{
  "_format": "hh3-artifact-1",
  "contractName": "GateVerifier",
  "sourceName": "contracts/GateVerifier.sol",
  "abi": [
    {
      "inputs": [
        {
          "internalType": "address",
          "name": "eventRegistryAddress",
          "type": "address"
        },
        {
          "internalType": "address",
          "name": "ticketCredentialAddress",
          "type": "address"
        }
      ],
      "stateMutability": "nonpayable",
      "type": "constructor"
    },
    {
      "anonymous": false,
      "inputs": [
        {
          "indexed": true,
          "internalType": "uint256",
          "name": "ticketId",
          "type": "uint256"
        },
        {
          "indexed": true,
          "internalType": "uint256",
          "name": "eventId",
          "type": "uint256"
        },
        {
          "indexed": true,
          "internalType": "address",
          "name": "holder",
          "type": "address"
        },
        {
          "indexed": false,
          "internalType": "enum GateVerifier.VerificationResult",
          "name": "result",
          "type": "uint8"
        }
      ],
      "name": "TicketVerified",
      "type": "event"
    },
    {
      "inputs": [],
      "name": "eventRegistry",
      "outputs": [
        {
          "internalType": "contract EventRegistry",
          "name": "",
          "type": "address"
        }
      ],
      "stateMutability": "view",
      "type": "function"
    },
    {
      "inputs": [
        {
          "internalType": "uint256",
          "name": "ticketId",
          "type": "uint256"
        }
      ],
      "name": "getLastVerification",
      "outputs": [
        {
          "components": [
            {
              "internalType": "uint256",
              "name": "ticketId",
              "type": "uint256"
            },
            {
              "internalType": "uint256",
              "name": "eventId",
              "type": "uint256"
            },
            {
              "internalType": "address",
              "name": "holder",
              "type": "address"
            },
            {
              "internalType": "enum GateVerifier.VerificationResult",
              "name": "result",
              "type": "uint8"
            },
            {
              "internalType": "uint256",
              "name": "timestamp",
              "type": "uint256"
            }
          ],
          "internalType": "struct GateVerifier.VerificationLog",
          "name": "",
          "type": "tuple"
        }
      ],
      "stateMutability": "view",
      "type": "function"
    },
    {
      "inputs": [
        {
          "internalType": "uint256",
          "name": "ticketId",
          "type": "uint256"
        }
      ],
      "name": "getVerificationLogs",
      "outputs": [
        {
          "components": [
            {
              "internalType": "uint256",
              "name": "ticketId",
              "type": "uint256"
            },
            {
              "internalType": "uint256",
              "name": "eventId",
              "type": "uint256"
            },
            {
              "internalType": "address",
              "name": "holder",
              "type": "address"
            },
            {
              "internalType": "enum GateVerifier.VerificationResult",
              "name": "result",
              "type": "uint8"
            },
            {
              "internalType": "uint256",
              "name": "timestamp",
              "type": "uint256"
            }
          ],
          "internalType": "struct GateVerifier.VerificationLog[]",
          "name": "",
          "type": "tuple[]"
        }
      ],
      "stateMutability": "view",
      "type": "function"
    },
    {
      "inputs": [],
      "name": "ticketCredential",
      "outputs": [
        {
          "internalType": "contract TicketCredential",
          "name": "",
          "type": "address"
        }
      ],
      "stateMutability": "view",
      "type": "function"
    },
    {
      "inputs": [
        {
          "internalType": "uint256",
          "name": "",
          "type": "uint256"
        }
      ],
      "name": "usedAtGate",
      "outputs": [
        {
          "internalType": "bool",
          "name": "",
          "type": "bool"
        }
      ],
      "stateMutability": "view",
      "type": "function"
    },
    {
      "inputs": [
        {
          "internalType": "uint256",
          "name": "",
          "type": "uint256"
        },
        {
          "internalType": "uint256",
          "name": "",
          "type": "uint256"
        }
      ],
      "name": "verificationLogs",
      "outputs": [
        {
          "internalType": "uint256",
          "name": "ticketId",
          "type": "uint256"
        },
        {
          "internalType": "uint256",
          "name": "eventId",
          "type": "uint256"
        },
        {
          "internalType": "address",
          "name": "holder",
          "type": "address"
        },
        {
          "internalType": "enum GateVerifier.VerificationResult",
          "name": "result",
          "type": "uint8"
        },
        {
          "internalType": "uint256",
          "name": "timestamp",
          "type": "uint256"
        }
      ],
      "stateMutability": "view",
      "type": "function"
    },
    {
      "inputs": [
        {
          "internalType": "uint256",
          "name": "ticketId",
          "type": "uint256"
        },
        {
          "internalType": "uint256",
          "name": "eventId",
          "type": "uint256"
        },
        {
          "internalType": "bytes32",
          "name": "presentedHash",
          "type": "bytes32"
        }
      ],
      "name": "verifyTicket",
      "outputs": [
        {
          "internalType": "enum GateVerifier.VerificationResult",
          "name": "",
          "type": "uint8"
        }
      ],
      "stateMutability": "nonpayable",
      "type": "function"
    }
  ],
  "bytecode": "0x608060405234801561000f575f5ffd5b5060405161120a38038061120a83398181016040528101906100319190610116565b8160025f6101000a81548173ffffffffffffffffffffffffffffffffffffffff021916908373ffffffffffffffffffffffffffffffffffffffff1602179055508060035f6101000a81548173ffffffffffffffffffffffffffffffffffffffff021916908373ffffffffffffffffffffffffffffffffffffffff1602179055505050610154565b5f5ffd5b5f73ffffffffffffffffffffffffffffffffffffffff82169050919050565b5f6100e5826100bc565b9050919050565b6100f5816100db565b81146100ff575f5ffd5b50565b5f81519050610110816100ec565b92915050565b5f5f6040838503121561012c5761012b6100b8565b5b5f61013985828601610102565b925050602061014a85828601610102565b9150509250929050565b6110a9806101615f395ff3fe608060405234801561000f575f5ffd5b506004361061007b575f3560e01c80635b2fa8f1116100595780635b2fa8f11461010f57806377366a231461012d578063acaacad514610161578063c44186691461017f5761007b565b80630cc6699a1461007f57806346bbce6b146100af5780634dd16ab6146100df575b5f5ffd5b610099600480360381019061009491906108b0565b6101af565b6040516100a69190610973565b60405180910390f35b6100c960048036038101906100c4919061098c565b610486565b6040516100d691906109d1565b60405180910390f35b6100f960048036038101906100f4919061098c565b6104a3565b6040516101069190610aad565b60405180910390f35b610117610611565b6040516101249190610b21565b60405180910390f35b61014760048036038101906101429190610b3a565b610636565b604051610158959493929190610b96565b60405180910390f35b6101696106ad565b6040516101769190610c07565b60405180910390f35b6101996004803603810190610194919061098c565b6106d2565b6040516101a69190610d2e565b60405180910390f35b5f5f60035f9054906101000a900473ffffffffffffffffffffffffffffffffffffffff1673ffffffffffffffffffffffffffffffffffffffff16638dd18d2d866040518263ffffffff1660e01b815260040161020b9190610d4e565b60e060405180830381865afa158015610226573d5f5f3e3d5ffd5b505050506040513d601f19601f8201168201806040525081019061024a9190610f43565b90505f848260200151146102615760049050610309565b60015f8781526020019081526020015f205f9054906101000a900460ff161561028d5760039050610308565b600260038111156102a1576102a0610900565b5b826080015160038111156102b8576102b7610900565b5b036102c65760029050610307565b838260600151146102da5760019050610306565b5f90506001805f8881526020019081526020015f205f6101000a81548160ff0219169083151502179055505b5b5b5b5f5f8781526020019081526020015f206040518060a00160405280888152602001878152602001846040015173ffffffffffffffffffffffffffffffffffffffff16815260200183600481111561036357610362610900565b5b815260200142815250908060018154018082558091505060019003905f5260205f2090600402015f909190919091505f820151815f0155602082015181600101556040820151816002015f6101000a81548173ffffffffffffffffffffffffffffffffffffffff021916908373ffffffffffffffffffffffffffffffffffffffff16021790555060608201518160020160146101000a81548160ff0219169083600481111561041557610414610900565b5b0217905550608082015181600301555050816040015173ffffffffffffffffffffffffffffffffffffffff1685877fc6d770a8e2f315bc6569993cccf02fb5477208bb69462bff522560f82c5619cb846040516104729190610973565b60405180910390a480925050509392505050565b6001602052805f5260405f205f915054906101000a900460ff1681565b6104ab6107eb565b5f5f5f8481526020019081526020015f208054905011610500576040517f08c379a00000000000000000000000000000000000000000000000000000000081526004016104f790610fc8565b60405180910390fd5b5f60015f5f8581526020019081526020015f20805490506105219190611013565b90505f5f8481526020019081526020015f20818154811061054557610544611046565b5b905f5260205f2090600402016040518060a00160405290815f820154815260200160018201548152602001600282015f9054906101000a900473ffffffffffffffffffffffffffffffffffffffff1673ffffffffffffffffffffffffffffffffffffffff1673ffffffffffffffffffffffffffffffffffffffff1681526020016002820160149054906101000a900460ff1660048111156105e9576105e8610900565b5b60048111156105fb576105fa610900565b5b8152602001600382015481525050915050919050565b60035f9054906101000a900473ffffffffffffffffffffffffffffffffffffffff1681565b5f602052815f5260405f20818154811061064e575f80fd5b905f5260205f2090600402015f9150915050805f015490806001015490806002015f9054906101000a900473ffffffffffffffffffffffffffffffffffffffff16908060020160149054906101000a900460ff16908060030154905085565b60025f9054906101000a900473ffffffffffffffffffffffffffffffffffffffff1681565b60605f5f8381526020019081526020015f20805480602002602001604051908101604052809291908181526020015f905b828210156107e0578382905f5260205f2090600402016040518060a00160405290815f820154815260200160018201548152602001600282015f9054906101000a900473ffffffffffffffffffffffffffffffffffffffff1673ffffffffffffffffffffffffffffffffffffffff1673ffffffffffffffffffffffffffffffffffffffff1681526020016002820160149054906101000a900460ff1660048111156107b1576107b0610900565b5b60048111156107c3576107c2610900565b5b815260200160038201548152505081526020019060010190610703565b505050509050919050565b6040518060a001604052805f81526020015f81526020015f73ffffffffffffffffffffffffffffffffffffffff1681526020015f600481111561083157610830610900565b5b81526020015f81525090565b5f604051905090565b5f5ffd5b5f819050919050565b61085c8161084a565b8114610866575f5ffd5b50565b5f8135905061087781610853565b92915050565b5f819050919050565b61088f8161087d565b8114610899575f5ffd5b50565b5f813590506108aa81610886565b92915050565b5f5f5f606084860312156108c7576108c6610846565b5b5f6108d486828701610869565b93505060206108e586828701610869565b92505060406108f68682870161089c565b9150509250925092565b7f4e487b71000000000000000000000000000000000000000000000000000000005f52602160045260245ffd5b6005811061093e5761093d610900565b5b50565b5f81905061094e8261092d565b919050565b5f61095d82610941565b9050919050565b61096d81610953565b82525050565b5f6020820190506109865f830184610964565b92915050565b5f602082840312156109a1576109a0610846565b5b5f6109ae84828501610869565b91505092915050565b5f8115159050919050565b6109cb816109b7565b82525050565b5f6020820190506109e45f8301846109c2565b92915050565b6109f38161084a565b82525050565b5f73ffffffffffffffffffffffffffffffffffffffff82169050919050565b5f610a22826109f9565b9050919050565b610a3281610a18565b82525050565b610a4181610953565b82525050565b60a082015f820151610a5b5f8501826109ea565b506020820151610a6e60208501826109ea565b506040820151610a816040850182610a29565b506060820151610a946060850182610a38565b506080820151610aa760808501826109ea565b50505050565b5f60a082019050610ac05f830184610a47565b92915050565b5f819050919050565b5f610ae9610ae4610adf846109f9565b610ac6565b6109f9565b9050919050565b5f610afa82610acf565b9050919050565b5f610b0b82610af0565b9050919050565b610b1b81610b01565b82525050565b5f602082019050610b345f830184610b12565b92915050565b5f5f60408385031215610b5057610b4f610846565b5b5f610b5d85828601610869565b9250506020610b6e85828601610869565b9150509250929050565b610b818161084a565b82525050565b610b9081610a18565b82525050565b5f60a082019050610ba95f830188610b78565b610bb66020830187610b78565b610bc36040830186610b87565b610bd06060830185610964565b610bdd6080830184610b78565b9695505050505050565b5f610bf182610af0565b9050919050565b610c0181610be7565b82525050565b5f602082019050610c1a5f830184610bf8565b92915050565b5f81519050919050565b5f82825260208201905092915050565b5f819050602082019050919050565b60a082015f820151610c5d5f8501826109ea565b506020820151610c7060208501826109ea565b506040820151610c836040850182610a29565b506060820151610c966060850182610a38565b506080820151610ca960808501826109ea565b50505050565b5f610cba8383610c49565b60a08301905092915050565b5f602082019050919050565b5f610cdc82610c20565b610ce68185610c2a565b9350610cf183610c3a565b805f5b83811015610d21578151610d088882610caf565b9750610d1383610cc6565b925050600181019050610cf4565b5085935050505092915050565b5f6020820190508181035f830152610d468184610cd2565b905092915050565b5f602082019050610d615f830184610b78565b92915050565b5f5ffd5b5f601f19601f8301169050919050565b7f4e487b71000000000000000000000000000000000000000000000000000000005f52604160045260245ffd5b610db182610d6b565b810181811067ffffffffffffffff82111715610dd057610dcf610d7b565b5b80604052505050565b5f610de261083d565b9050610dee8282610da8565b919050565b5f81519050610e0181610853565b92915050565b610e1081610a18565b8114610e1a575f5ffd5b50565b5f81519050610e2b81610e07565b92915050565b5f81519050610e3f81610886565b92915050565b60048110610e51575f5ffd5b50565b5f81519050610e6281610e45565b92915050565b610e71816109b7565b8114610e7b575f5ffd5b50565b5f81519050610e8c81610e68565b92915050565b5f60e08284031215610ea757610ea6610d67565b5b610eb160e0610dd9565b90505f610ec084828501610df3565b5f830152506020610ed384828501610df3565b6020830152506040610ee784828501610e1d565b6040830152506060610efb84828501610e31565b6060830152506080610f0f84828501610e54565b60808301525060a0610f2384828501610df3565b60a08301525060c0610f3784828501610e7e565b60c08301525092915050565b5f60e08284031215610f5857610f57610846565b5b5f610f6584828501610e92565b91505092915050565b5f82825260208201905092915050565b7f4e6f20766572696669636174696f6e73207965740000000000000000000000005f82015250565b5f610fb2601483610f6e565b9150610fbd82610f7e565b602082019050919050565b5f6020820190508181035f830152610fdf81610fa6565b9050919050565b7f4e487b71000000000000000000000000000000000000000000000000000000005f52601160045260245ffd5b5f61101d8261084a565b91506110288361084a565b92508282039050818111156110405761103f610fe6565b5b92915050565b7f4e487b71000000000000000000000000000000000000000000000000000000005f52603260045260245ffdfea2646970667358221220c05bdcb6e6c92a64e56cdc1972f17b30841443f1a85555bf541dfdeea79e7bc064736f6c634300081c0033",
  "linkReferences": {},
  "deployedLinkReferences": {},
  "immutableReferences": {},
  "inputSourceName": "project/contracts/GateVerifier.sol",
  "buildInfoId": "solc-0_8_28-e4b972e5a33055d61c18b0920fc5c75474240465"
}