{
  "_format": "hh3-artifact-1",
  "contractName": "TicketCredential",
  "sourceName": "contracts/TicketCredential.sol",
  "abi": [
    {
      "inputs": [
        {
          "internalType": "address",
          "name": "eventRegistryAddress",
          "type": "address"
        }
      ],
      "stateMutability": "nonpayable",
      "type": "constructor"
    },
    {
      "anonymous": false,
      "inputs": [
        {
          "indexed": true,
          "internalType": "uint256",
          "name": "ticketId",
          "type": "uint256"
        },
        {
          "indexed": true,
          "internalType": "uint256",
          "name": "eventId",
          "type": "uint256"
        },
        {
          "indexed": true,
          "internalType": "address",
          "name": "holder",
          "type": "address"
        },
        {
          "indexed": false,
          "internalType": "bytes32",
          "name": "credentialHash",
          "type": "bytes32"
        }
      ],
      "name": "TicketIssued",
      "type": "event"
    },
    {
      "anonymous": false,
      "inputs": [
        {
          "indexed": true,
          "internalType": "uint256",
          "name": "ticketId",
          "type": "uint256"
        },
        {
          "indexed": false,
          "internalType": "address",
          "name": "holder",
          "type": "address"
        }
      ],
      "name": "TicketRevoked",
      "type": "event"
    },
    {
      "anonymous": false,
      "inputs": [
        {
          "indexed": true,
          "internalType": "uint256",
          "name": "ticketId",
          "type": "uint256"
        },
        {
          "indexed": true,
          "internalType": "address",
          "name": "from",
          "type": "address"
        },
        {
          "indexed": true,
          "internalType": "address",
          "name": "to",
          "type": "address"
        },
        {
          "indexed": false,
          "internalType": "bytes32",
          "name": "newCredentialHash",
          "type": "bytes32"
        }
      ],
      "name": "TicketTransferred",
      "type": "event"
    },
    {
      "inputs": [
        {
          "internalType": "uint256",
          "name": "",
          "type": "uint256"
        }
      ],
      "name": "credentials",
      "outputs": [
        {
          "internalType": "uint256",
          "name": "ticketId",
          "type": "uint256"
        },
        {
          "internalType": "uint256",
          "name": "eventId",
          "type": "uint256"
        },
        {
          "internalType": "address",
          "name": "holder",
          "type": "address"
        },
        {
          "internalType": "bytes32",
          "name": "credentialHash",
          "type": "bytes32"
        },
        {
          "internalType": "enum TicketCredential.TicketStatus",
          "name": "status",
          "type": "uint8"
        },
        {
          "internalType": "uint256",
          "name": "issuedAt",
          "type": "uint256"
        },
        {
          "internalType": "bool",
          "name": "exists",
          "type": "bool"
        }
      ],
      "stateMutability": "view",
      "type": "function"
    },
    {
      "inputs": [],
      "name": "eventRegistry",
      "outputs": [
        {
          "internalType": "contract EventRegistry",
          "name": "",
          "type": "address"
        }
      ],
      "stateMutability": "view",
      "type": "function"
    },
    {
      "inputs": [
        {
          "internalType": "uint256",
          "name": "ticketId",
          "type": "uint256"
        }
      ],
      "name": "getCredential",
      "outputs": [
        {
          "components": [
            {
              "internalType": "uint256",
              "name": "ticketId",
              "type": "uint256"
            },
            {
              "internalType": "uint256",
              "name": "eventId",
              "type": "uint256"
            },
            {
              "internalType": "address",
              "name": "holder",
              "type": "address"
            },
            {
              "internalType": "bytes32",
              "name": "credentialHash",
              "type": "bytes32"
            },
            {
              "internalType": "enum TicketCredential.TicketStatus",
              "name": "status",
              "type": "uint8"
            },
            {
              "internalType": "uint256",
              "name": "issuedAt",
              "type": "uint256"
            },
            {
              "internalType": "bool",
              "name": "exists",
              "type": "bool"
            }
          ],
          "internalType": "struct TicketCredential.Credential",
          "name": "",
          "type": "tuple"
        }
      ],
      "stateMutability": "view",
      "type": "function"
    },
    {
      "inputs": [
        {
          "internalType": "address",
          "name": "holder",
          "type": "address"
        }
      ],
      "name": "getHolderTickets",
      "outputs": [
        {
          "internalType": "uint256[]",
          "name": "",
          "type": "uint256[]"
        }
      ],
      "stateMutability": "view",
      "type": "function"
    },
    {
      "inputs": [
        {
          "internalType": "address",
          "name": "",
          "type": "address"
        },
        {
          "internalType": "uint256",
          "name": "",
          "type": "uint256"
        }
      ],
      "name": "holderTickets",
      "outputs": [
        {
          "internalType": "uint256",
          "name": "",
          "type": "uint256"
        }
      ],
      "stateMutability": "view",
      "type": "function"
    },
    {
      "inputs": [
        {
          "internalType": "uint256",
          "name": "eventId",
          "type": "uint256"
        },
        {
          "internalType": "address",
          "name": "buyer",
          "type": "address"
        },
        {
          "internalType": "bytes32",
          "name": "credentialHash",
          "type": "bytes32"
        }
      ],
      "name": "issueTicket",
      "outputs": [
        {
          "internalType": "uint256",
          "name": "",
          "type": "uint256"
        }
      ],
      "stateMutability": "nonpayable",
      "type": "function"
    },
    {
      "inputs": [
        {
          "internalType": "uint256",
          "name": "ticketId",
          "type": "uint256"
        },
        {
          "internalType": "uint256",
          "name": "eventId",
          "type": "uint256"
        }
      ],
      "name": "revokeTicket",
      "outputs": [],
      "stateMutability": "nonpayable",
      "type": "function"
    },
    {
      "inputs": [],
      "name": "ticketCount",
      "outputs": [
        {
          "internalType": "uint256",
          "name": "",
          "type": "uint256"
        }
      ],
      "stateMutability": "view",
      "type": "function"
    },
    {
      "inputs": [
        {
          "internalType": "uint256",
          "name": "ticketId",
          "type": "uint256"
        },
        {
          "internalType": "address",
          "name": "newHolder",
          "type": "address"
        },
        {
          "internalType": "bytes32",
          "name": "newCredentialHash",
          "type": "bytes32"
        }
      ],
      "name": "transferTicket",
      "outputs": [],
      "stateMutability": "nonpayable",
      "type": "function"
    }
  ],
  "bytecode": "0x608060405234801561000f575f5ffd5b50604051611d95380380611d95833981810160405281019061003191906100d5565b8060035f6101000a81548173ffffffffffffffffffffffffffffffffffffffff021916908373ffffffffffffffffffffffffffffffffffffffff16021790555050610100565b5f5ffd5b5f73ffffffffffffffffffffffffffffffffffffffff82169050919050565b5f6100a48261007b565b9050919050565b6100b48161009a565b81146100be575f5ffd5b50565b5f815190506100cf816100ab565b92915050565b5f602082840312156100ea576100e9610077565b5b5f6100f7848285016100c1565b91505092915050565b611c888061010d5f395ff3fe608060405234801561000f575f5ffd5b5060043610610091575f3560e01c8063cfbd900f11610064578063cfbd900f1461011b578063da70eddf14610139578063e0574e3f14610169578063f1f2c3191461019f578063f8cdd464146101cf57610091565b80630f6fa0ba146100955780638dd18d2d146100b1578063acaacad5146100e1578063ce5cca8b146100ff575b5f5ffd5b6100af60048036038101906100aa91906110c7565b6101ff565b005b6100cb60048036038101906100c69190611117565b610644565b6040516100d89190611288565b60405180910390f35b6100e961079d565b6040516100f691906112fc565b60405180910390f35b61011960048036038101906101149190611315565b6107c2565b005b6101236109e1565b6040516101309190611362565b60405180910390f35b610153600480360381019061014e91906110c7565b6109e7565b6040516101609190611362565b60405180910390f35b610183600480360381019061017e9190611117565b610e64565b60405161019697969594939291906113b7565b60405180910390f35b6101b960048036038101906101b49190611424565b610ed8565b6040516101c69190611362565b60405180910390f35b6101e960048036038101906101e49190611462565b610f03565b6040516101f69190611535565b60405180910390f35b825f5f8281526020019081526020015f206006015f9054906101000a900460ff1661025f576040517f08c379a0000000000000000000000000000000000000000000000000000000008152600401610256906115af565b60405180910390fd5b3373ffffffffffffffffffffffffffffffffffffffff165f5f8381526020019081526020015f206002015f9054906101000a900473ffffffffffffffffffffffffffffffffffffffff1673ffffffffffffffffffffffffffffffffffffffff16146102ff576040517f08c379a00000000000000000000000000000000000000000000000000000000081526004016102f690611617565b60405180910390fd5b835f60038111156103135761031261116f565b5b5f5f8381526020019081526020015f206004015f9054906101000a900460ff1660038111156103455761034461116f565b5b14610385576040517f08c379a000000000000000000000000000000000000000000000000000000000815260040161037c9061167f565b60405180910390fd5b5f73ffffffffffffffffffffffffffffffffffffffff168473ffffffffffffffffffffffffffffffffffffffff16036103f3576040517f08c379a00000000000000000000000000000000000000000000000000000000081526004016103ea906116e7565b60405180910390fd5b3373ffffffffffffffffffffffffffffffffffffffff168473ffffffffffffffffffffffffffffffffffffffff1603610461576040517f08c379a00000000000000000000000000000000000000000000000000000000081526004016104589061174f565b60405180910390fd5b5f5f5f8781526020019081526020015f206002015f9054906101000a900473ffffffffffffffffffffffffffffffffffffffff169050845f5f8881526020019081526020015f206002015f6101000a81548173ffffffffffffffffffffffffffffffffffffffff021916908373ffffffffffffffffffffffffffffffffffffffff160217905550835f5f8881526020019081526020015f206003018190555060035f5f8881526020019081526020015f206004015f6101000a81548160ff021916908360038111156105365761053561116f565b5b021790555060015f8673ffffffffffffffffffffffffffffffffffffffff1673ffffffffffffffffffffffffffffffffffffffff1681526020019081526020015f2086908060018154018082558091505060019003905f5260205f20015f90919091909150558473ffffffffffffffffffffffffffffffffffffffff168173ffffffffffffffffffffffffffffffffffffffff16877f3bb8d74b4ef959fac1eaf251f3c755584311775c9feed50086b6d97ca1a7876b876040516105fa919061176d565b60405180910390a45f5f5f8881526020019081526020015f206004015f6101000a81548160ff021916908360038111156106375761063661116f565b5b0217905550505050505050565b61064c610f96565b5f5f8381526020019081526020015f206006015f9054906101000a900460ff166106ab576040517f08c379a00000000000000000000000000000000000000000000000000000000081526004016106a2906115af565b60405180910390fd5b5f5f8381526020019081526020015f206040518060e00160405290815f820154815260200160018201548152602001600282015f9054906101000a900473ffffffffffffffffffffffffffffffffffffffff1673ffffffffffffffffffffffffffffffffffffffff1673ffffffffffffffffffffffffffffffffffffffff16815260200160038201548152602001600482015f9054906101000a900460ff16600381111561075c5761075b61116f565b5b600381111561076e5761076d61116f565b5b815260200160058201548152602001600682015f9054906101000a900460ff1615151515815250509050919050565b60035f9054906101000a900473ffffffffffffffffffffffffffffffffffffffff1681565b5f5f8381526020019081526020015f206006015f9054906101000a900460ff16610821576040517f08c379a0000000000000000000000000000000000000000000000000000000008152600401610818906115af565b60405180910390fd5b5f60035f9054906101000a900473ffffffffffffffffffffffffffffffffffffffff1673ffffffffffffffffffffffffffffffffffffffff16636d1884e0836040518263ffffffff1660e01b815260040161087c9190611362565b5f60405180830381865afa158015610896573d5f5f3e3d5ffd5b505050506040513d5f823e3d601f19601f820116820180604052508101906108be9190611a1b565b90503373ffffffffffffffffffffffffffffffffffffffff168160c0015173ffffffffffffffffffffffffffffffffffffffff1614610932576040517f08c379a000000000000000000000000000000000000000000000000000000000815260040161092990611aac565b60405180910390fd5b5f5f5f8581526020019081526020015f206002015f9054906101000a900473ffffffffffffffffffffffffffffffffffffffff16905060025f5f8681526020019081526020015f206004015f6101000a81548160ff0219169083600381111561099e5761099d61116f565b5b0217905550837f37bd1230fe8e8fc9af8451f78551e98dec16db81a9d5c49b5611f1efd3f3bbd1826040516109d39190611aca565b60405180910390a250505050565b60025481565b5f5f60035f9054906101000a900473ffffffffffffffffffffffffffffffffffffffff1673ffffffffffffffffffffffffffffffffffffffff16636d1884e0866040518263ffffffff1660e01b8152600401610a439190611362565b5f60405180830381865afa158015610a5d573d5f5f3e3d5ffd5b505050506040513d5f823e3d601f19601f82011682018060405250810190610a859190611a1b565b90503373ffffffffffffffffffffffffffffffffffffffff168160c0015173ffffffffffffffffffffffffffffffffffffffff1614610af9576040517f08c379a0000000000000000000000000000000000000000000000000000000008152600401610af090611b2d565b60405180910390fd5b5f60035f9054906101000a900473ffffffffffffffffffffffffffffffffffffffff1673ffffffffffffffffffffffffffffffffffffffff1663ba8562a7876040518263ffffffff1660e01b8152600401610b549190611362565b602060405180830381865afa158015610b6f573d5f5f3e3d5ffd5b505050506040513d601f19601f82011682018060405250810190610b939190611b4b565b90505f8111610bd7576040517f08c379a0000000000000000000000000000000000000000000000000000000008152600401610bce90611bc0565b60405180910390fd5b5f600254905060025f815480929190610bef90611c0b565b91905055506040518060e001604052808281526020018881526020018773ffffffffffffffffffffffffffffffffffffffff1681526020018681526020015f6003811115610c4057610c3f61116f565b5b8152602001428152602001600115158152505f5f8381526020019081526020015f205f820151815f0155602082015181600101556040820151816002015f6101000a81548173ffffffffffffffffffffffffffffffffffffffff021916908373ffffffffffffffffffffffffffffffffffffffff160217905550606082015181600301556080820151816004015f6101000a81548160ff02191690836003811115610cee57610ced61116f565b5b021790555060a0820151816005015560c0820151816006015f6101000a81548160ff02191690831515021790555090505060015f8773ffffffffffffffffffffffffffffffffffffffff1673ffffffffffffffffffffffffffffffffffffffff1681526020019081526020015f2081908060018154018082558091505060019003905f5260205f20015f909190919091505560035f9054906101000a900473ffffffffffffffffffffffffffffffffffffffff1673ffffffffffffffffffffffffffffffffffffffff16634327c1a0886040518263ffffffff1660e01b8152600401610dda9190611362565b5f604051808303815f87803b158015610df1575f5ffd5b505af1158015610e03573d5f5f3e3d5ffd5b505050508573ffffffffffffffffffffffffffffffffffffffff1687827f6cda9fe7429d381e6d48619d323d790108a913a91c229c8e1a16d3695865cd9588604051610e4f919061176d565b60405180910390a48093505050509392505050565b5f602052805f5260405f205f91509050805f015490806001015490806002015f9054906101000a900473ffffffffffffffffffffffffffffffffffffffff1690806003015490806004015f9054906101000a900460ff1690806005015490806006015f9054906101000a900460ff16905087565b6001602052815f5260405f208181548110610ef1575f80fd5b905f5260205f20015f91509150505481565b606060015f8373ffffffffffffffffffffffffffffffffffffffff1673ffffffffffffffffffffffffffffffffffffffff1681526020019081526020015f20805480602002602001604051908101604052809291908181526020018280548015610f8a57602002820191905f5260205f20905b815481526020019060010190808311610f76575b50505050509050919050565b6040518060e001604052805f81526020015f81526020015f73ffffffffffffffffffffffffffffffffffffffff1681526020015f81526020015f6003811115610fe257610fe161116f565b5b81526020015f81526020015f151581525090565b5f604051905090565b5f5ffd5b5f5ffd5b5f819050919050565b61101981611007565b8114611023575f5ffd5b50565b5f8135905061103481611010565b92915050565b5f73ffffffffffffffffffffffffffffffffffffffff82169050919050565b5f6110638261103a565b9050919050565b61107381611059565b811461107d575f5ffd5b50565b5f8135905061108e8161106a565b92915050565b5f819050919050565b6110a681611094565b81146110b0575f5ffd5b50565b5f813590506110c18161109d565b92915050565b5f5f5f606084860312156110de576110dd610fff565b5b5f6110eb86828701611026565b93505060206110fc86828701611080565b925050604061110d868287016110b3565b9150509250925092565b5f6020828403121561112c5761112b610fff565b5b5f61113984828501611026565b91505092915050565b61114b81611007565b82525050565b61115a81611059565b82525050565b61116981611094565b82525050565b7f4e487b71000000000000000000000000000000000000000000000000000000005f52602160045260245ffd5b600481106111ad576111ac61116f565b5b50565b5f8190506111bd8261119c565b919050565b5f6111cc826111b0565b9050919050565b6111dc816111c2565b82525050565b5f8115159050919050565b6111f6816111e2565b82525050565b60e082015f8201516112105f850182611142565b5060208201516112236020850182611142565b5060408201516112366040850182611151565b5060608201516112496060850182611160565b50608082015161125c60808501826111d3565b5060a082015161126f60a0850182611142565b5060c082015161128260c08501826111ed565b50505050565b5f60e08201905061129b5f8301846111fc565b92915050565b5f819050919050565b5f6112c46112bf6112ba8461103a565b6112a1565b61103a565b9050919050565b5f6112d5826112aa565b9050919050565b5f6112e6826112cb565b9050919050565b6112f6816112dc565b82525050565b5f60208201905061130f5f8301846112ed565b92915050565b5f5f6040838503121561132b5761132a610fff565b5b5f61133885828601611026565b925050602061134985828601611026565b9150509250929050565b61135c81611007565b82525050565b5f6020820190506113755f830184611353565b92915050565b61138481611059565b82525050565b61139381611094565b82525050565b6113a2816111c2565b82525050565b6113b1816111e2565b82525050565b5f60e0820190506113ca5f83018a611353565b6113d76020830189611353565b6113e4604083018861137b565b6113f1606083018761138a565b6113fe6080830186611399565b61140b60a0830185611353565b61141860c08301846113a8565b98975050505050505050565b5f5f6040838503121561143a57611439610fff565b5b5f61144785828601611080565b925050602061145885828601611026565b9150509250929050565b5f6020828403121561147757611476610fff565b5b5f61148484828501611080565b91505092915050565b5f81519050919050565b5f82825260208201905092915050565b5f819050602082019050919050565b5f6114c18383611142565b60208301905092915050565b5f602082019050919050565b5f6114e38261148d565b6114ed8185611497565b93506114f8836114a7565b805f5b8381101561152857815161150f88826114b6565b975061151a836114cd565b9250506001810190506114fb565b5085935050505092915050565b5f6020820190508181035f83015261154d81846114d9565b905092915050565b5f82825260208201905092915050565b7f5469636b657420646f6573206e6f7420657869737400000000000000000000005f82015250565b5f611599601583611555565b91506115a482611565565b602082019050919050565b5f6020820190508181035f8301526115c68161158d565b9050919050565b7f4e6f7420746865207469636b657420686f6c64657200000000000000000000005f82015250565b5f611601601583611555565b915061160c826115cd565b602082019050919050565b5f6020820190508181035f83015261162e816115f5565b9050919050565b7f5469636b6574206973206e6f742076616c6964000000000000000000000000005f82015250565b5f611669601383611555565b915061167482611635565b602082019050919050565b5f6020820190508181035f8301526116968161165d565b9050919050565b7f496e76616c6964206164647265737300000000000000000000000000000000005f82015250565b5f6116d1600f83611555565b91506116dc8261169d565b602082019050919050565b5f6020820190508181035f8301526116fe816116c5565b9050919050565b7f43616e6e6f74207472616e7366657220746f20796f757273656c6600000000005f82015250565b5f611739601b83611555565b915061174482611705565b602082019050919050565b5f6020820190508181035f8301526117668161172d565b9050919050565b5f6020820190506117805f83018461138a565b92915050565b5f5ffd5b5f601f19601f8301169050919050565b7f4e487b71000000000000000000000000000000000000000000000000000000005f52604160045260245ffd5b6117d08261178a565b810181811067ffffffffffffffff821117156117ef576117ee61179a565b5b80604052505050565b5f611801610ff6565b905061180d82826117c7565b919050565b5f5ffd5b5f8151905061182481611010565b92915050565b5f5ffd5b5f5ffd5b5f67ffffffffffffffff82111561184c5761184b61179a565b5b6118558261178a565b9050602081019050919050565b8281835e5f83830152505050565b5f61188261187d84611832565b6117f8565b90508281526020810184848401111561189e5761189d61182e565b5b6118a9848285611862565b509392505050565b5f82601f8301126118c5576118c461182a565b5b81516118d5848260208601611870565b91505092915050565b5f815190506118ec8161106a565b92915050565b6118fb816111e2565b8114611905575f5ffd5b50565b5f81519050611916816118f2565b92915050565b5f610100828403121561193257611931611786565b5b61193d6101006117f8565b90505f61194c84828501611816565b5f83015250602082015167ffffffffffffffff81111561196f5761196e611812565b5b61197b848285016118b1565b602083015250604082015167ffffffffffffffff81111561199f5761199e611812565b5b6119ab848285016118b1565b60408301525060606119bf84828501611816565b60608301525060806119d384828501611816565b60808301525060a06119e784828501611816565b60a08301525060c06119fb848285016118de565b60c08301525060e0611a0f84828501611908565b60e08301525092915050565b5f60208284031215611a3057611a2f610fff565b5b5f82015167ffffffffffffffff811115611a4d57611a4c611003565b5b611a598482850161191c565b91505092915050565b7f4f6e6c79206f7267616e697a65722063616e207265766f6b65000000000000005f82015250565b5f611a96601983611555565b9150611aa182611a62565b602082019050919050565b5f6020820190508181035f830152611ac381611a8a565b9050919050565b5f602082019050611add5f83018461137b565b92915050565b7f4f6e6c79206f7267616e697a65722063616e206973737565207469636b6574735f82015250565b5f611b17602083611555565b9150611b2282611ae3565b602082019050919050565b5f6020820190508181035f830152611b4481611b0b565b9050919050565b5f60208284031215611b6057611b5f610fff565b5b5f611b6d84828501611816565b91505092915050565b7f4576656e7420697320736f6c64206f75740000000000000000000000000000005f82015250565b5f611baa601183611555565b9150611bb582611b76565b602082019050919050565b5f6020820190508181035f830152611bd781611b9e565b9050919050565b7f4e487b71000000000000000000000000000000000000000000000000000000005f52601160045260245ffd5b5f611c1582611007565b91507fffffffffffffffffffffffffffffffffffffffffffffffffffffffffffffffff8203611c4757611c46611bde565b5b60018201905091905056fea2646970667358221220ab91fbf96779af90b43d6e84c21b28a5bbf4cac8acf4325136ab547479d9abc064736f6c634300081c0033",
  "linkReferences": {},
  "deployedLinkReferences": {},
  "immutableReferences": {},
  "inputSourceName": "project/contracts/TicketCredential.sol",
  "buildInfoId": "solc-0_8_28-6d4f6b2dde6d252704f5d4b7ad847a69b88b906b"
}